:020000020000FC
:040000000C9422003A
:04000C000C947E00D2
:100040000C94A6000FEF0DBF08E00DBF00E8009371
:10005000610001E0009361000EEF0AB906E004B907
:100060000FE007B900E008B9259A2D9800E004B91F
:1000700008E105B908E100936B00199A01E00093CB
:100080006800789440E050E010E0C0E090E081F338
:100090004961332505F1013160E070E00E949C0068
:1000A0006A30F1F0823301F10E946300199A1A9AC2
:1000B000F0E0EEE8E70F94919BB90E946300763080
:1000C000B9F00C9450005FEF5A95F1F75FEF5A9535
:1000D000F1F75FEF5A95F1F75FEF5A95F1F7089551
:1000E00060E073950C945000639580E00C94500090
:1000F0000E94630070E060E00C9450000F930FB713
:100100000F9323B123FF0BC024FF02C00C94960071
:100110003FEF3A95F1F74A95403041F440E03FEF28
:100120003A95F1F74395403109F44FE01D9AD89A7A
:100130000F910FBF0F911895E0E0E4BDE5E0E5BD3C
:10014000E4E6E6BDE1E0E0936E0008950F930FB79B
:100150000F9304E606BDA89A83950F910FBF0F91E8
:020160001895F0
:00000001FF
